:030000000201A852
:0C01A800787FE4F6D8FD758109020003A1
:0A01B400C0F9A4B0999282F880907F
:0F017900C2A07FE87E03120188D2A07F2C7E01F6
:10018800E4FDFCC3ED9FEC9E5015E4FBFA0BBB00AD
:0F019800010AEB647B4A70F50DBD00010C80E499
:0101A7002235
:0801BE009001B4E493F5B022B6
:0801C6009001B5E493F5B022AD
:0801CE009001B6E493F5B022A4
:0801D6009001B7E493F5B0229B
:0801DE009001B8E493F5B02292
:0801E6009001B9E493F5B02289
:0801EE009001BAE493F5B02280
:0801F6009001BBE493F5B02277
:0801FE009001BCE493F5B0226E
:080206009001BDE493F5B02264
:10000300E4F9D2A3D2A2D2A1D2A020A5637F647EB9
:10001300001201881201C6C2A07FE87E0312018884
:10002300D2A01201CEC2A1120188D2A11201D6C25E
:10003300A2120188D2A21201DEC2A3120188D2A3A6
:100043001201E6C2A0120188D2A01201EEC2A112CF
:100053000188D2A11201F6C2A2120188D2A2120112
:10006300FEC2A3120188D2A3D2A3D2A0D2A1D2A04E
:1000730020A43D7F647E001201881201C61201791B
:100083001201CE1201791201D61201791201DE1288
:1000930001791201E61201791201EE1201791201BE
:1000A300F61201791201FE12017912020612017988
:1000B30030A6030201587F647E00120188120206F3
:1000C300C2A3C2A2C2A1C2A07FE87E03120188120A
:1000D30001FEC2A3C2A2C2A1C2A01201881201F6EC
:1000E300C2A3C2A2C2A1C2A01201881201EEC2A37E
:1000F300C2A2C2A1C2A01201881201E6C2A3C2A277
:10010300C2A1C2A01201881201DEC2A3C2A2C2A16F
:10011300C2A01201881201D6C2A3C2A2C2A1C2A068
:100123001201881201CEC2A3C2A2C2A1C2A01201AF
:10013300881201C6C2A3C2A2C2A1C2A01201881220
:1001430001BEC2A3C2A2C2A1C2A0120188D2A3D27D
:10015300A2D2A1D2A030A70302000D20A7030980D9
:10016300FAC2A1E975F00784E5F09001B593F5B003
:0601730012018402000DE0
:00000001FF
